{
  "_format": "hh-sol-artifact-1",
  "contractName": "LivePoker",
  "sourceName": "contracts/LivePoker.sol",
  "abi": [
    {
      "anonymous": false,
      "inputs": [
        {
          "indexed": true,
          "internalType": "address",
          "name": "player",
          "type": "address"
        },
        {
          "indexed": false,
          "internalType": "uint256",
          "name": "amount",
          "type": "uint256"
        },
        {
          "indexed": false,
          "internalType": "uint256",
          "name": "pot",
          "type": "uint256"
        }
      ],
      "name": "BetPlaced",
      "type": "event"
    },
    {
      "anonymous": false,
      "inputs": [
        {
          "indexed": true,
          "internalType": "bytes32",
          "name": "playerHash",
          "type": "bytes32"
        }
      ],
      "name": "Joined",
      "type": "event"
    },
    {
      "anonymous": false,
      "inputs": [
        {
          "indexed": true,
          "internalType": "address",
          "name": "winner",
          "type": "address"
        },
        {
          "indexed": false,
          "internalType": "uint256",
          "name": "payout",
          "type": "uint256"
        },
        {
          "indexed": false,
          "internalType": "bytes",
          "name": "proof",
          "type": "bytes"
        }
      ],
      "name": "Settled",
      "type": "event"
    },
    {
      "inputs": [
        {
          "internalType": "bytes32",
          "name": "playerHash",
          "type": "bytes32"
        }
      ],
      "name": "joinTable",
      "outputs": [],
      "stateMutability": "nonpayable",
      "type": "function"
    },
    {
      "inputs": [
        {
          "internalType": "bytes32",
          "name": "",
          "type": "bytes32"
        }
      ],
      "name": "joinedPlayers",
      "outputs": [
        {
          "internalType": "bool",
          "name": "",
          "type": "bool"
        }
      ],
      "stateMutability": "view",
      "type": "function"
    },
    {
      "inputs": [],
      "name": "placeBet",
      "outputs": [],
      "stateMutability": "payable",
      "type": "function"
    },
    {
      "inputs": [
        {
          "internalType": "address",
          "name": "winner",
          "type": "address"
        },
        {
          "internalType": "bytes",
          "name": "proof",
          "type": "bytes"
        }
      ],
      "name": "settleHand",
      "outputs": [],
      "stateMutability": "nonpayable",
      "type": "function"
    },
    {
      "inputs": [],
      "name": "table",
      "outputs": [
        {
          "internalType": "uint256",
          "name": "pot",
          "type": "uint256"
        },
        {
          "internalType": "address",
          "name": "lastWinner",
          "type": "address"
        }
      ],
      "stateMutability": "view",
      "type": "function"
    }
  ],
  "bytecode": "0x608060405234801561001057600080fd5b50610b75806100206000396000f3fe60806040526004361061004a5760003560e01c8063128d381a1461004f578063c1352ced1461007b578063c75abfb3146100a4578063f90f4560146100e1578063fd5a8098146100eb575b600080fd5b34801561005b57600080fd5b50610064610114565b604051610072929190610587565b60405180910390f35b34801561008757600080fd5b506100a2600480360381019061009d919061064b565b610146565b005b3480156100b057600080fd5b506100cb60048036038101906100c691906106e1565b610358565b6040516100d89190610729565b60405180910390f35b6100e9610378565b005b3480156100f757600080fd5b50610112600480360381019061010d91906106e1565b61042d565b005b60018060000154908060010160009054906101000a900473ffffffffffffffffffffffffffffffffffffffff16905082565b600073ffffffffffffffffffffffffffffffffffffffff168373ffffffffffffffffffffffffffffffffffffffff16036101b5576040517f08c379a00000000000000000000000000000000000000000000000000000000081526004016101ac906107a1565b60405180910390fd5b600082829050116101fb576040517f08c379a00000000000000000000000000000000000000000000000000000000081526004016101f29061080d565b60405180910390fd5b600060016000015490506000600160000181905550836001800160006101000a81548173ffffffffffffffffffffffffffffffffffffffff021916908373ffffffffffffffffffffffffffffffffffffffff16021790555060008473ffffffffffffffffffffffffffffffffffffffff16826040516102799061085e565b60006040518083038185875af1925050503d80600081146102b6576040519150601f19603f3d011682016040523d82523d6000602084013e6102bb565b606091505b50509050806102ff576040517f08c379a00000000000000000000000000000000000000000000000000000000081526004016102f6906108bf565b60405180910390fd5b8473ffffffffffffffffffffffffffffffffffffffff167f900f7f8285be8ee651b4a8415a12591f3bce70667bd05b833489cfd5799266578386866040516103499392919061093d565b60405180910390a25050505050565b60006020528060005260406000206000915054906101000a900460ff1681565b600034116103bb576040517f08c379a00000000000000000000000000000000000000000000000000000000081526004016103b2906109bb565b60405180910390fd5b34600160000160008282546103d09190610a0a565b925050819055503373ffffffffffffffffffffffffffffffffffffffff167e1ecf1d0c4d22f324b3ecb9cdf0e5f772bc74ac104e6626f4b3845433d0310534600160000154604051610423929190610a3e565b60405180910390a2565b6000801b8103610472576040517f08c379a000000000000000000000000000000000000000000000000000000000815260040161046990610ab3565b60405180910390fd5b60008082815260200190815260200160002060009054906101000a900460ff16156104d2576040517f08c379a00000000000000000000000000000000000000000000000000000000081526004016104c990610b1f565b60405180910390fd5b600160008083815260200190815260200160002060006101000a81548160ff021916908315150217905550807f110be0d0ed3a8aa2e2f935af00d27bc161eb6db104b33180c4457146c504392c60405160405180910390a250565b6000819050919050565b6105408161052d565b82525050565b600073ffffffffffffffffffffffffffffffffffffffff82169050919050565b600061057182610546565b9050919050565b61058181610566565b82525050565b600060408201905061059c6000830185610537565b6105a96020830184610578565b9392505050565b600080fd5b600080fd5b6105c381610566565b81146105ce57600080fd5b50565b6000813590506105e0816105ba565b92915050565b600080fd5b600080fd5b600080fd5b60008083601f84011261060b5761060a6105e6565b5b8235905067ffffffffffffffff811115610628576106276105eb565b5b602083019150836001820283011115610644576106436105f0565b5b9250929050565b600080600060408486031215610664576106636105b0565b5b6000610672868287016105d1565b935050602084013567ffffffffffffffff811115610693576106926105b5565b5b61069f868287016105f5565b92509250509250925092565b6000819050919050565b6106be816106ab565b81146106c957600080fd5b50565b6000813590506106db816106b5565b92915050565b6000602082840312156106f7576106f66105b0565b5b6000610705848285016106cc565b91505092915050565b60008115159050919050565b6107238161070e565b82525050565b600060208201905061073e600083018461071a565b92915050565b600082825260208201905092915050565b7f696e76616c69642077696e6e6572000000000000000000000000000000000000600082015250565b600061078b600e83610744565b915061079682610755565b602082019050919050565b600060208201905081810360008301526107ba8161077e565b9050919050565b7f696e76616c69642070726f6f6600000000000000000000000000000000000000600082015250565b60006107f7600d83610744565b9150610802826107c1565b602082019050919050565b60006020820190508181036000830152610826816107ea565b9050919050565b600081905092915050565b50565b600061084860008361082d565b915061085382610838565b600082019050919050565b60006108698261083b565b9150819050919050565b7f7061796f7574206661696c656400000000000000000000000000000000000000600082015250565b60006108a9600d83610744565b91506108b482610873565b602082019050919050565b600060208201905081810360008301526108d88161089c565b9050919050565b600082825260208201905092915050565b82818337600083830152505050565b6000601f19601f8301169050919050565b600061091c83856108df565b93506109298385846108f0565b610932836108ff565b840190509392505050565b60006040820190506109526000830186610537565b8181036020830152610965818486610910565b9050949350505050565b7f6e6f206265740000000000000000000000000000000000000000000000000000600082015250565b60006109a5600683610744565b91506109b08261096f565b602082019050919050565b600060208201905081810360008301526109d481610998565b9050919050565b7f4e487b7100000000000000000000000000000000000000000000000000000000600052601160045260246000fd5b6000610a158261052d565b9150610a208361052d565b9250828201905080821115610a3857610a376109db565b5b92915050565b6000604082019050610a536000830185610537565b610a606020830184610537565b9392505050565b7f696e76616c696420686173680000000000000000000000000000000000000000600082015250565b6000610a9d600c83610744565b9150610aa882610a67565b602082019050919050565b60006020820190508181036000830152610acc81610a90565b9050919050565b7f616c7265616479206a6f696e6564000000000000000000000000000000000000600082015250565b6000610b09600e83610744565b9150610b1482610ad3565b602082019050919050565b60006020820190508181036000830152610b3881610afc565b905091905056fea26469706673582212208fea68e388e5ed45788ebcb7cc385f8048a908603515ea6829c8905ce161341564736f6c63430008150033",
  "linkReferences": {},
  "deployedLinkReferences": {}
}